:020000040800F2
:1000000000200020411400087F090008850900082D
:1000100000000000000000000000000000000000E0
:100020000000000000000000000000008B09000834
:10003000000000000000000095090008A109000868
:1000400091140008911400089114000891140008FC
:1000500091140008911400089114000891140008EC
:1000600091140008911400089114000891140008DC
:100070009114000891140008000000009114000879
:1000800000000000911400080000000000000000C3
:100090009114000800000000911400089114000859
:1000A000911400089114000891140008911400089C
:1000B000911400089114000891140008911400088C
:1000C00010B5064C2378002B07D1054B002B02D02E
:1000D000044800E000BF0123237010BD040000208D
:1000E00000000000EC140008044B10B5002B03D0F6
:1000F0000349044800E000BF10BDC04600000000F6
:1001000008000020EC140008002243088B4274D33E
:1001100003098B425FD3030A8B4244D3030B8B4208
:1001200028D3030C8B420DD3FF22090212BA030C11
:100130008B4202D31212090265D0030B8B4219D3F2
:1001400000E0090AC30B8B4201D3CB03C01A524112
:10015000830B8B4201D38B03C01A5241430B8B425A
:1001600001D34B03C01A5241030B8B4201D30B0343
:10017000C01A5241C30A8B4201D3CB02C01A52416A
:10018000830A8B4201D38B02C01A5241430A8B422D
:1001900001D34B02C01A5241030A8B4201D30B0216
:1001A000C01A5241CDD2C3098B4201D3CB01C01A30
:1001B000524183098B4201D38B01C01A524143093A
:1001C0008B4201D34B01C01A524103098B4201D328
:1001D0000B01C01A5241C3088B4201D3CB00C01A95
:1001E000524183088B4201D38B00C01A524143080D
:1001F0008B4201D34B00C01A5241411A00D2014632
:10020000524110467047FFE701B5002000F006F8A4
:1002100002BDC0460029F7D076E770477047C04658
:10022000B0B582B000AF02003960FB1D1A70FB1D33
:100230001B787F2B28D82F4CFB1D1B785BB29B08AB
:100240002C49FA1D127852B29208C03292005258CC
:10025000F91D0978080003210140C900FF208840EA
:100260000100C94311403A689201FF201040FA1D75
:100270001278150003222A40D200904002000A435F
:10028000C0339B001A5131E01B4CFB1D1B781A0038
:100290000F231340083B9908174AFB1D1B781800D1
:1002A0000F230340083B9B0806339B00D3180433FD
:1002B0001B68FA1D1278100003220240D200FF20B2
:1002C00090400200D2431A403B689B01FF20184037
:1002D000FB1D1B781D0003232B40DB00984003000F
:1002E0001A438B1D9B00E31804331A60C046BD46B9
:1002F00002B0B0BD00E100E000ED00E080B582B0EA
:1003000000AF78607B68013B0C4A934201D901231E
:1003100010E00B4B7A68013A5A6001235B420321DB
:100320001800FFF77DFF064B00229A60044B07225E
:100330001A6000231800BD4602B080BDFFFFFF0019
:1003400010E000E080B500AF044B044A12680121C0
:100350000A431A60C046BD4680BDC0460010024038
:1003600080B500AF054B1B6804221340042B01D15C
:10037000012300E000231800BD4680BD00100240AC
:1003800080B582B000AF7860064B064A52680649D5
:1003900011407A6812020A435A60C046BD4602B054
:1003A00080BDC04600100240FFE0FFFF80B582B074
:1003B00000AF7860064B064AD26803218A431100D9
:1003C0007A680A43DA60C046BD4602B080BDC046C6
:1003D0000010024080B500AF034BDB680C221340D5
:1003E0001800BD4680BDC0460010024080B582B0F6
:1003F00000AF7860064B064AD268F0218A431100AC
:100400007A680A43DA60C046BD4602B080BDC04685
:100410000010024080B582B000AF7860054B054AFD
:10042000D268054911407A680A43DA60C046BD4681
:1004300002B080BD00100240FFF8FFFF80B582B01F
:1004400000AF7860054B054AD268054911407A68CB
:100450000A43DA60C046BD4602B080BD00100240CB
:10046000FFC7FFFF80B582B000AF7860074B074A37
:10047000D26C7968090CC94311407A681204120CD5
:100480000A43DA64C046BD4602B080BD0010024097
:1004900080B584B000AF7860074B074A916B7A68EB
:1004A0000A439A63044B9B6B7A681340FB60FB68BA
:1004B000C046BD4604B080BD0010024080B584B087
:1004C00000AF7860074B074A516B7A680A435A635A
:1004D000044B5B6B7A681340FB60FB68C046BD460B
:1004E00004B080BD0010024080B584B000AF7860D9
:1004F000074B074AD16A7A680A43DA62044BDB6A1F
:100500007A681340FB60FB68C046BD4604B080BDFE
:100510000010024090B583B000AF786039600F4C96
:100520003B68FF2213400D493A68FF200240023227
:10053000920052583968090C0F2088400100C943C5
:1005400011403A68120C7868904002000A43023366
:100550009B001A51C046BD4603B090BD000001404B
:1005600080B582B000AF7860064B064A1268012160
:100570008A4311007A680A431A60C046BD4602B039
:1005800080BDC0460020024080B500AF034B1B6811
:10059000012213401800BD4680BDC0460020024025
:1005A00080B582B000AF7860054B054A12680549F6
:1005B00011407A680A431A60C046BD4602B080BD49
:1005C00000700040FFE7FFFF80B582B000AF7860A9
:1005D0007B681B6801221A437B681A60C046BD46CF
:1005E00002B080BD80B582B000AF78607B685B6888
:1005F000074A1A407B685A607B689B682A229343AB
:100600001A007B689A60C046BD4602B080BDC046F5
:10061000FFB7FFFF80B584B000AFF860B9607A60C3
:10062000FB681968BB68BA685A4313005B009B18E3
:10063000DB430B401A00BB68B9684B4379684B43F6
:100640001A43FB681A60C046BD4604B080BD80B541
:1006500084B000AFF860B9607A60FB68D968BB68A5
:10066000BA685A4313005B009B18DB430B401A0027
:10067000BB68B9684B4379684B431A43FB68DA603F
:10068000C046BD4604B080BD80B582B000AF786082
:1006900039607B683A689A62C046BD4602B080BD48
:1006A00080B582B000AF0200BB1D1A80034BBA1D9B
:1006B00012881A80C046BD4602B080BD20000020CE
:1006C00080B500AF0120FFF7F9FE80235B0518001D
:1006D000FFF7DEFE00F018F80A4B1A68FA239900BB
:1006E0001000FFF711FD03001800FFF707FEFA23C3
:1006F000DB001800FFF7D4FF00F0C2F800F042F86A
:10070000FEE7C0460000002080B500AF0020FFF7E4
:1007100027FFC046FFF738FF031EFBD180231B01D4
:100720001800FFF73DFFFFF70DFEC046FFF718FE6C
:100730000300012BFAD11020FFF722FE0020FFF763
:1007400055FE0020FFF766FE0020FFF777FE012030
:10075000FFF72CFEC046FFF73DFE0300042BFAD145
:10076000074B180000F04EFE054B180000F05AFE33
:10077000C0231B031800FFF775FEC046BD4680BDB1
:100780000024F40080B58EB000AF1C23FB181800C5
:100790001C231A00002100F0A1FE3B1D18001823A5
:1007A0001A00002100F09AFE80239B021800FFF738
:1007B0006FFE0120FFF798FE3B1D04221A603B1DCF
:1007C00002225A603B1D03229A603B1D0022DA6020
:1007D0003B1D00221A613B1D04225A613A1DA023D1
:1007E000DB051100180000F0C7FA3B1D08221A6053
:1007F0003B1D02225A603B1D03229A603B1D0022D2
:10080000DA603B1D00221A613B1D04225A613A1D29
:10081000A023DB051100180000F0AEFA1C23FB1822
:10082000E12252021A601C23FB1800225A601C238A
:10083000FB1800229A601C23FB180022DA601C239C
:10084000FB180C221A611C23FB1800225A611C237E
:10085000FB1800229A611C23FB18084A190010009B
:1008600000F052FD054B1800FFF7BCFE034B1800CB
:10087000FFF7AAFEC046BD460EB080BD0044004052
:1008800080B588B000AF1823FB18180008231A00A1
:10089000002100F023FE3B00180018231A0000215D
:1008A00000F01CFE0420FFF71FFE8020FFF71CFE57
:1008B0000120FFF719FEA023DB0520211800FFF718
:1008C000E3FE214B19000220FFF724FE80239B0149
:1008D0001E4800221900FFF7BAFE80239B011B4827
:1008E00000221900FFF796FE1823FB1880229201C0
:1008F0001A601823FB1801221A711823FB18002212
:100900005A711823FB1802229A711823FB18180039
:1009100000F0F2F83B0020221A603B0001225A60EE
:100920003B0000229A603B000022DA603B0000227C
:100930001A613A00A023DB051100180000F01CFA30
:10094000C046BD4608B080BD03000400000800504A
:1009500080B584B000AF786039607B685B69FB600C
:10096000FB683A6813401A04FB68DB4339680B40A4
:100970001A437B689A61C046BD4604B080BD80B50D
:1009800000AFFEE780B500AFFEE780B500AFC04620
:10099000BD4680BD80B500AFC046BD4680BD0000ED
:1009A00080B500AF0B4B1B685A1C0A4B1A600A4BF0
:1009B0001B881A00074B1B689A4208D1A023DB054D
:1009C00020211800FFF7C4FF024B00221A60C04626
:1009D000BD4680BD240000202000002080B500AF6F
:1009E000C046BD4680BD000080B582B000AF7860D3
:1009F000044B044A11687A680A431A60C046BD462F
:100A000002B080BD0004014080B582B000AF7860C4
:100A1000054B054A12687968C9430A401A60C04606
:100A2000BD4602B080BDC0460004014080B582B022
:100A300000AF7860044B044A51687A680A435A60F0
:100A4000C046BD4602B080BD0004014080B582B002
:100A500000AF7860054B054A52687968C9430A407F
:100A60005A60C046BD4602B080BDC0460004014089
:100A700080B582B000AF7860044B044A91687A6810
:100A80000A439A60C046BD4602B080BD00040140E2
:100A900080B582B000AF7860054B054A92687968EE
:100AA000C9430A409A60C046BD4602B080BDC046F8
:100AB0000004014080B582B000AF7860044B044A66
:100AC000D1687A680A43DA60C046BD4602B080BD8C
:100AD0000004014080B582B000AF7860054B054A44
:100AE000D2687968C9430A40DA60C046BD4602B0A0
:100AF00080BDC0460004014080B584B000AF78607E
:100B00000F23FB1800221A707B681B79002B64D01E
:100B10007B681B68002B6AD07B685B79012B0ED049
:100B2000022B17D0002B20D17B681B681800FFF721
:100B30008DFF7B681B681800FFF756FF1AE07B6883
:100B40001B681800FFF760FF7B681B681800FFF741
:100B50006DFF0FE07B681B681800FFF745FF7B689F
:100B60001B681800FFF762FF04E00F23FB18012247
:100B70001A70C0467B689B79002B38D07B689B79C4
:100B8000022B0ED0032B17D0012B20D17B681B68C2
:100B90001800FFF79FFF7B681B681800FFF768FFCE
:100BA00025E07B681B681800FFF772FF7B681B68F5
:100BB0001800FFF77FFF1AE07B681B681800FFF73B
:100BC00057FF7B681B681800FFF774FF0FE00F23C7
:100BD000FB1801221A70C04609E07B681B681800E8
:100BE000FFF712FF7B681B681800FFF72FFF0F232A
:100BF000FB181B781800BD4604B080BD80B584B0DA
:100C000000AFF860B9607A60FB681968BB68BA68C1
:100C10005A4313005B009B18DB430B401A00BB6870
:100C2000B9684B4379684B431A43FB681A60C04666
:100C3000BD4604B080BD80B584B000AFF860B96037
:100C40007A60FB685B68BA68D2431A40BB6879680F
:100C50004B431A43FB685A60C046BD4604B080BD92
:100C600080B584B000AFF860B9607A60FB689968BD
:100C7000BB68BA685A4313005B009B18DB430B4008
:100C80001A00BB68B9684B4379684B431A43FB6849
:100C90009A60C046BD4604B080BD80B584B000AF48
:100CA000F860B9607A60FB68D968BB68BA685A4373
:100CB00013005B009B18DB430B401A00BB68B9684C
:100CC0004B4379684B431A43FB68DA60C046BD4624
:100CD00004B080BD80B584B000AFF860B9607A60C0
:100CE000FB68196ABB68BA685343BA685343BA6869
:100CF0005A4313001B019B1ADB430B401A00BB68CD
:100D0000B9684B43B9684B43B9684B4379684B4367
:100D10001A43FB681A62C046BD4604B080BD80B568
:100D200084B000AFF860B9607A60FB68596ABB684C
:100D30001B0ABA68120A5343BA68120A5343BA68C4
:100D4000120A5A4313001B019B1ADB430B401A0083
:100D5000BB681B0AB968090A4B43B968090A4B43C7
:100D6000B968090A4B4379684B431A43FB685A62D6
:100D7000C046BD4604B080BD80B584B000AF786089
:100D800039600023FB600023BB6048E03B681B68C0
:100D90000121FA6891400A001340BB60BB68002B38
:100DA0003AD03B685B68012B03D03B685B68022B41
:100DB0000ED13B689A68B9687B681800FFF750FF4E
:100DC0003B6819683B68DA687B681800FFF733FFF7
:100DD0003B681A69B9687B681800FFF75EFF3B68DB
:100DE0005B68022B11D1BB68FF2B07D83B685A699F
:100DF000B9687B681800FFF76DFF06E03B685A6929
:100E0000B9687B681800FFF78AFF3B685A68B968C1
:100E10007B681800FFF7F2FEFB680133FB603B685C
:100E20001A68FB68DA40131EB0D100231800BD46D3
:100E300004B080BD80B500AF054B1B680422134091
:100E4000042B01D1012300E000231800BD4680BD22
:100E50000010024080B500AF074B1A6D80239B0045
:100E60001A4080239B009A4201D1012300E0002315
:100E70001800BD4680BDC0460010024080B500AFDE
:100E8000034B5A68E0231B0213401800BD4680BD87
:100E90000010024080B500AF034BDB680C2213400A
:100EA0001800BD4680BDC0460010024080B500AFAE
:100EB000034BDB68F02213401800BD4680BDC046DE
:100EC0000010024080B500AF034BDA68E023DB007E
:100ED00013401800BD4680BD0010024080B500AF31
:100EE000034BDA68E0239B0113401800BD4680BD28
:100EF0000010024080B582B000AF7860054BDB6C1B
:100F00007A681A407B681B0413431800BD4602B080
:100F100080BDC0460010024080B500AF034BDA68C8
:100F200080235B0213401800BD4680BD00100240C4
:100F300080B500AF034BDA68F0239B031340180021
:100F4000BD4680BD0010024080B500AF034BDA689B
:100F5000C0231B0413401800BD4680BD0010024092
:100F600080B500AF054B1B6810221340102B01D138
:100F7000012300E000231800BD4680BD00100240A0
:100F800080B584B000AF78600023FB607B68032BE2
:100F900038D17B681800FFF7ADFF03003A4A93424F
:100FA0000AD03A4A934215D0394A93421AD100F0F6
:100FB0007BF80300FB6025E0FFF73CFF031E1ED01B
:100FC000FFF7CEFF031E02D0324BFB6017E0324B1F
:100FD000FB6014E0FFF73EFF031E12D080231B02CC
:100FE000FB600EE000F060F80300180000F0A0F8CD
:100FF0000300180000F0C6F80300FB6002E0C046E2
:1010000000E0C0467B680C2B38D17B681800FFF7E6
:1010100071FF0300214A93420AD0214A934215D01E
:10102000204A93421AD100F03FF80300FB6025E00C
:10103000FFF700FF031E1ED0FFF792FF031E02D032
:10104000144BFB6017E0144BFB6014E0FFF702FF4A
:10105000031E12D080231B02FB600EE000F024F878
:101060000300180000F064F80300180000F076F8A0
:101070000300FB6002E0C04600E0C046FB681800C9
:10108000BD4604B080BDC04602000300030003005B
:101090000100030000093D000024F40008000C00DA
:1010A0000C000C0004000C0080B582B000AFFFF70C
:1010B000F1FE0300042B13D002D8002B05D021E051
:1010C000082B17D00C2B18D01CE0FFF7D7FE03001D
:1010D0005B0B0133802212029A4013007B601CE0FC
:1010E000FFF73EFF031E02D00E4B7B6015E00E4B58
:1010F0007B6012E00D4B7B600FE000F057F80300BF
:101100007B600AE0FFF7BAFE03005B0B013380222D
:1011100012029A4013007B60C0467B681800BD46EF
:1011200002B080BD00093D000024F40000127A00E6
:1011300080B582B000AF7860FFF7B8FE03001B09EE
:101140000F221340044AD35C1A007B68D340180076
:10115000BD4602B080BDC0460415000880B582B00F
:1011600000AF7860FFF7AEFE03001B0A044AD35CB1
:101170001A007B68D3401800BD4602B080BDC0464F
:101180001415000880B582B000AF7860FFF7A6FEA6
:101190000300DB0A044AD35C1A007B68D3401800C2
:1011A000BD4602B080BDC0461415000890B583B09E
:1011B00000AFFFF7B1FE03003B603B68002B09D195
:1011C000FFF7CEFE031E02D0104B7B6005E0104BF4
:1011D0007B6002E00F4B7B60C046FFF7A9FE030077
:1011E0009B0C0D4AD35C1A007B6853431C00FFF72D
:1011F000ABFE03009B0D013319002000FEF784FFB6
:1012000003001800BD4603B090BDC04600093D0074
:101210000024F40000127A001C15000880B582B08A
:1012200000AF78607B681B6801221340012B01D15D
:10123000012300E000231800BD4602B080BD00007D
:1012400080B582B000AF786039607B685B68054A22
:101250001A403B681A437B685A60C046BD4602B0DC
:1012600080BDC046FFCFFFFF80B582B000AF786081
:1012700039607B689B68054A1A403B681A437B6863
:101280009A60C046BD4602B080BDC046FFFCFFFF6D
:1012900080B586B000AFF860B9607A603B607A686C
:1012A00080231B029A421CD1BB685A003B685B0832
:1012B000D31839681800FEF727FF03009BB27B6143
:1012C0007B69104A13403B617B695B089BB21A0043
:1012D000072313403A6913433B61FB683A69DA60BC
:1012E0000CE03B685A08BB68D31839681800FEF751
:1012F0000BFF03009BB21A00FB68DA60C046BD46D4
:1013000006B080BDF0FF000080B584B000AF78600B
:1013100039600F23FB1801221A700023BB607B6821
:101320001800FFF77BFF031E45D17B681B68254A29
:101330001A403B6859683B68DB6819433B681B6986
:1013400019433B689B690B431A437B681A603B68EF
:101350009A687B6811001800FFF772FF3B685A69B2
:101360007B6811001800FFF77FFF7B68164A9342E5
:1013700005D10320FFF704FE0300BB6008E07B6893
:10138000124A934204D10C20FFF7FAFD0300BB6020
:10139000BB68002B0FD03B681B68002B0BD00F23C2
:1013A000FB1800221A703B689A693B681B68B96891
:1013B0007868FFF76DFF0F23FB181B781800BD46F8
:1013C00004B080BDF369FFEF0038014000440040E5
:1013D00090B583B000AF78603960094C396878689F
:1013E000FEF792FE0300013B6360054B00229A600A
:1013F000034B05221A60C046BD4603B090BDC046EF
:1014000010E000E080B582B000AF7860FA239A0067
:101410007B6811001800FFF7DBFFC046BD4602B035
:1014200080BD000080B582B000AF7860034B7A6861
:101430001A60C046BD4602B080BDC0460000002014
:101440000D4885460D480E490E4A002302E0D45847
:10145000C4500433C4188C42F9D30B4A0B4C0023FC
:1014600001E013600432A242FBD3FFF7B7FA00F0A9
:1014700011F8FFF725F9FEE700200020000000200A
:10148000040000203015000804000020280000207F
:10149000FEE7000070B500260C4D0D4C641BA41037
:1014A000A64209D1002600F021F80A4D0A4C641B1F
:1014B000A410A64205D170BDB300EB589847013681
:1014C000EEE7B300EB5898470136F2E7281500081D
:1014D00028150008281500082C150008030082189C
:1014E000934200D1704719700133F9E7F8B5C0464F
:1014F000F8BC08BC9E467047F8B5C046F8BC08BCAE
:041500009E4670474C
:1015040000000000000000000102030406070809AF
:101514000000000001020304030406080C10182054
:041524003000000093
:04152800E9000008CE
:04152C00C1000008F2
:041530000000200097
:04000005080014419A
:00000001FF
